{
  "contractName": "Button",
  "abi": [
    {
      "constant": true,
      "inputs": [
        {
          "internalType": "uint256",
          "name": "",
          "type": "uint256"
        }
      ],
      "name": "monsters",
      "outputs": [
        {
          "internalType": "string",
          "name": "name",
          "type": "string"
        },
        {
          "internalType": "uint256",
          "name": "level",
          "type": "uint256"
        }
      ],
      "payable": false,
      "stateMutability": "view",
      "type": "function"
    },
    {
      "constant": false,
      "inputs": [
        {
          "internalType": "string",
          "name": "_name",
          "type": "string"
        }
      ],
      "name": "createMonster",
      "outputs": [],
      "payable": false,
      "stateMutability": "nonpayable",
      "type": "function"
    },
    {
      "constant": false,
      "inputs": [
        {
          "internalType": "uint256",
          "name": "monsterId",
          "type": "uint256"
        }
      ],
      "name": "levelUp",
      "outputs": [],
      "payable": false,
      "stateMutability": "nonpayable",
      "type": "function"
    },
    {
      "constant": true,
      "inputs": [
        {
          "internalType": "address",
          "name": "owner",
          "type": "address"
        }
      ],
      "name": "getOwnerHasMonster",
      "outputs": [
        {
          "internalType": "bool",
          "name": "",
          "type": "bool"
        }
      ],
      "payable": false,
      "stateMutability": "view",
      "type": "function"
    },
    {
      "constant": true,
      "inputs": [
        {
          "internalType": "address",
          "name": "owner",
          "type": "address"
        }
      ],
      "name": "getOwnersMonsterId",
      "outputs": [
        {
          "internalType": "uint256",
          "name": "",
          "type": "uint256"
        }
      ],
      "payable": false,
      "stateMutability": "view",
      "type": "function"
    }
  ],
  "bytecode": "0x608060405234801561001057600080fd5b50610654806100206000396000f3fe608060405234801561001057600080fd5b50600436106100575760003560e01c80630ce90ec21461005c57806336df52b91461008a578063561ad72c146100e65780639b247d4b1461013e578063c0576b73146101f9575b600080fd5b6100886004803603602081101561007257600080fd5b81019080803590602001909291905050506102a7565b005b6100cc600480360360208110156100a057600080fd5b81019080803573ffffffffffffffffffffffffffffffffffffffff1690602001909291905050506102d8565b604051808215151515815260200191505060405180910390f35b610128600480360360208110156100fc57600080fd5b81019080803573ffffffffffffffffffffffffffffffffffffffff16906020019092919050505061032e565b6040518082815260200191505060405180910390f35b6101f76004803603602081101561015457600080fd5b810190808035906020019064010000000081111561017157600080fd5b82018360208201111561018357600080fd5b803590602001918460018302840111640100000000831117156101a557600080fd5b91908080601f016020809104026020016040519081016040528093929190818152602001838380828437600081840152601f19601f820116905080830192505050505050509192919290505050610377565b005b6102256004803603602081101561020f57600080fd5b8101908080359060200190929190505050610497565b6040518080602001838152602001828103825284818151815260200191508051906020019080838360005b8381101561026b578082015181840152602081019050610250565b50505050905090810190601f1680156102985780820380516001836020036101000a031916815260200191505b50935050505060405180910390f35b600081815481106102b457fe5b90600052602060002090600202016001016000815480929190600101919050555050565b6000600260008373ffffffffffffffffffffffffffffffffffffffff1673ffffffffffffffffffffffffffffffffffffffff16815260200190815260200160002060009054906101000a900460ff169050919050565b6000600160008373ffffffffffffffffffffffffffffffffffffffff1673ffffffffffffffffffffffffffffffffffffffff168152602001908152602001600020549050919050565b61037f610560565b6040518060400160405280838152602001600081525090506000819080600181540180825580915050906001820390600052602060002090600202016000909192909190915060008201518160000190805190602001906103e192919061057a565b50602082015181600101555050506001600260003373ffffffffffffffffffffffffffffffffffffffff1673ffffffffffffffffffffffffffffffffffffffff16815260200190815260200160002060006101000a81548160ff021916908315150217905550600160008054905003600160003373ffffffffffffffffffffffffffffffffffffffff1673ffffffffffffffffffffffffffffffffffffffff168152602001908152602001600020819055505050565b600081815481106104a457fe5b9060005260206000209060020201600091509050806000018054600181600116156101000203166002900480601f0160208091040260200160405190810160405280929190818152602001828054600181600116156101000203166002900480156105505780601f1061052557610100808354040283529160200191610550565b820191906000526020600020905b81548152906001019060200180831161053357829003601f168201915b5050505050908060010154905082565b604051806040016040528060608152602001600081525090565b828054600181600116156101000203166002900490600052602060002090601f016020900481019282601f106105bb57805160ff19168380011785556105e9565b828001600101855582156105e9579182015b828111156105e85782518255916020019190600101906105cd565b5b5090506105f691906105fa565b5090565b61061c91905b80821115610618576000816000905550600101610600565b5090565b9056fea265627a7a7231582039c21766a27d42d414517ec543cd650e6d56607eb554efffd91594af8a44162564736f6c63430005100032",
  "source": "pragma solidity >=0.4.21 <0.7.0;\r\n\r\ncontract Button {\r\n    Monster[] public monsters; // index is monsterid\r\n    mapping (address => uint) ownerToMonsterId; // owner can only own 1 monster\r\n    mapping (address => bool) ownerHasMonster;\r\n\r\n    /*\r\n        Creates a new instance of a monster and records its owner\r\n        TESTED\r\n    */\r\n    function createMonster(string memory _name) public {\r\n        Monster memory newMonster = Monster(_name, 0);\r\n        monsters.push(newMonster);\r\n        ownerHasMonster[msg.sender] = true;\r\n        ownerToMonsterId[msg.sender] = monsters.length - 1;\r\n    }\r\n\r\n    /*\r\n        Monster level up\r\n        TESTED\r\n    */\r\n    function levelUp(uint monsterId) external {\r\n        monsters[monsterId].level++;\r\n    }\r\n\r\n    // TESTED\r\n    function getOwnerHasMonster(address owner) public view returns (bool) {\r\n        return ownerHasMonster[owner];\r\n    }\r\n\r\n    // TESTED  \r\n    function getOwnersMonsterId(address owner) public view returns (uint) {\r\n        return ownerToMonsterId[owner];\r\n    }\r\n\r\n    struct Monster {\r\n        string name;\r\n        uint level;\r\n    }\r\n}",
  "sourcePath": "C:\\git\\soliditydapp\\contracts\\Button.sol",
  "compiler": {
    "name": "solc",
    "version": "0.5.16+commit.9c3226ce.Emscripten.clang"
  },
  "schemaVersion": "3.4.3",
  "updatedAt": "2021-12-08T04:10:22.142Z",
  "networkType": "ethereum",
  "devdoc": {
    "methods": {}
  },
  "userdoc": {
    "methods": {}
  }
}